:020000020000FC
:1000000008C00000050202003D00060034030A009B
:100010003403EEE0F0E0E030F00561F0CFEFD1E244
:10002000DEBFCDBF08D04C175D0724F4EA01613074
:1000300009F4E901FFCF0591159163950030100592
:1000400029F4C030D00571F017C01BC0259135913F
:1000500004D00DD0F801E2DFFFCF4030500511F49D
:10006000A90108952417350764F4A90108952A17F2
:100070003B0738F0D901089525913591F3DFF7DF7B
:0400800000C008951F
:00000001FF
