:020000020000FC
:060000000C94060022C072
:100008000C943B003FEF3DBF31E23EBF3FEF30BBBA
:1000180031B9332731BB32B9552723E000EF0093BC
:100028000A010FEF0DB94FEF47B944E00AE000931A
:1000380069006FEF7FEF0DB303600DBB78940C94EC
:100048004C000F930FB70F93CC27AFE0BCE9119783
:10005800F1F7C395C233C9F7713031F470E00F91ED
:100068000FBF0F91E09A189571E00C9433000F932D
:100078000FB70F93CC27AFE0BCE91197F1F7C39501
:10008800C233C9F772E00F910FBF0F91E19A18952B
:1000980038E36ED17DD131E06BD17AD136E068D1C9
:1000A80077D13EE065D174D132E569D171D135E6B9
:1000B80066D16ED131E663D16BD134E660D168D1B7
:1000C80039E75DD165D13EE25AD162D13EE257D1DE
:1000D8005FD13EE254D15CD130E251D159D133E500
:1000E8004ED156D133E64BD153D13FE648D150D10A
:1000F80032E745D14DD135E642D14AD13AE33FD135
:1001080047D1352F305D3BD143D1483708F0405FA8
:1001180048B9713009F0FCCF6FEF6EB931E028D1E2
:1001280037D133E52CD134D134E729D131D131E677
:1001380026D12ED132E723D12BD134E720D128D1B3
:100148003EE21DD125D13EE21AD122D13EE217D19D
:100158001FD130E214D11CD133E511D119D133E6C6
:100168000ED116D13FE60BD113D132E708D110D109
:1001780035E605D10DD13AE302D10AD1352F305DEC
:10018800FED006D147E048B940E048B9233051F0E5
:1001980023950000000000000000000000007030FF
:1001A80021F0F0CF21E00C94C60060E06EB947E082
:1001B80048B940E048B9EFEE992700C09330A9F359
:1001C800E0930B011FEF47E048B940E048B91A95A2
:1001D800D1F7109109011F701F3079F0D1E08827FD
:1001E80047E048B940E048B9813039F0012F0D2384
:1001F80061F08395DD0F0C94F40047E048B940E0C6
:1002080048B9EE0F93950C94E2001127192F139516
:100218001217D9F55F5F31E0ABD0BAD033E5AFD074
:10022800B7D034E7ACD0B4D031E6A9D0B1D032E7FA
:10023800A6D0AED034E7A3D0ABD03EE2A0D0A8D0B1
:100248003EE29DD0A5D03EE29AD0A2D030E297D02F
:100258009FD033E594D09CD033E691D099D03FE637
:100268008ED096D032E78BD093D035E688D090D018
:100278003AE385D08DD0352F305D81D089D02130BB
:1002880031F0223069F02330A1F00C946A01723009
:10029800C9F041E048B9A7D041EF48B9A4D0F7CF99
:1002A800723081F042E048B99ED042EF48B99BD005
:1002B800F7CF723039F044E048B995D044EF48B9E7
:1002C80092D0F7CF6FEF7FEF0C944C005150513024
:1002D800D4F131E04DD05CD033E551D059D034E77A
:1002E8004ED056D031E64BD053D032E748D050D01C
:1002F80034E745D04DD03EE242D04AD03EE23FD02E
:1003080047D03EE23CD044D030E239D041D033E54A
:1003180036D03ED033E633D03BD03FE630D038D06D
:1003280032E72DD035D035E62AD032D03AE327D07F
:100338002FD0352F305D23D02BD0213031F0223013
:1003480049F0233061F00C940600723069F041E006
:1003580048B9FBCF723041F042E048B9FBCF723068
:1003680019F044E048B9FBCF6FEF7FEF0C944C00D5
:1003780031BB1FD0169A1DD016981BD0089531BBDB
:10038800179A17D0169A15D0169813D0179808955B
:100398003F93332730BB31BB159A0BD0169A09D03F
:1003A8003FB1169837FDF9CF15983FEF30BB3F9115
:1003B80008958F939F939FE08CE90197F1F79F91A0
:1003C8008F910895F6DFF5DFF4DFF3DFF2DF0895AC
:1003D800F9DFF8DFF7DFF6DFF5DF0895F9DFF8DF9B
:1003E800F7DFF6DF0895FADFF9DFF8DFF7DFF6DF8A
:0203F800089566
:00000001FF
